:100000000C948C000C94BD000C94BD000C94BD00AD
:100010000C94BD000C94BD000C94BD000C94BD006C
:100020000C94BD000C94BD000C94BD000C94BD005C
:100030000C94BD000C94BD000C94BD000C94BD004C
:100040000C94BD000C94BD000C94BD000C94BD003C
:100050000C94BD000C94BD000C94BD000C94B20D2A
:100060000C94BD000C940B070C94EF070C94BD008E
:100070000C94BD000C94BD000C94BD000C94BD000C
:100080000C94BD000C94BD000C94BD000C94BD00FC
:100090000C943C070C942E080C94BD000C94BD00ED
:1000A0000C94BD000C94BD000C94BD000C94BD00DC
:1000B0000C94BD000C94BD000C94BD000C94BD00CC
:1000C0000C94BD000C94BD000C94BD000C946D0705
:1000D0000C946D080C94BD000C949E070C94AC0815
:1000E0000C94BD000C947D030C9461060C946C0977
:1000F0000C94AA060C941C040C94CE070C94EC0CE3
:100100000C948A060C94B5060C9471060C94AB03FF
:100110007D036C09EC0CAB0311241FBECFEFD1E2C1
:10012000DEBFCDBF00E00CBF12E0A0E0B2E0E8E42B
:10013000F2E200E00BBF02C007900D92AC39B107AC
:10014000D9F726E0ACE9B2E001C01D92AE3DB2079E
:10015000E1F711E0C6E1D1E000E006C02297010915
:10016000FE010BBF0E940E11C031D10780E00807CD
:10017000A9F70E9454060C947A100C940000CF93B7
:10018000DF938FE992E00E94BE04C3EAD3E0279791
:10019000CE010E94BE0482E0C73AD807C1F788EBBF
:1001A00093E00E94BE0481EB93E00E94BE048AEAC1
:1001B00093E00E94BE0483EA93E0DF91CF910C9418
:1001C000BE04DC01ED91FC910190F081E02D1994C9
:1001D00040E050E0BA0187E696E00C94C10C1F9312
:1001E000CF93DF93CDB7DEB72E970FB6F894DEBF6F
:1001F0000FBECDBF182F6230710509F464C04CF5F5
:100200006115710509F44EC06130710509F0ABC08C
:1002100080919D02811B80939D026BE170E085E2DD
:1002200094E00E94E1004AE0612FCE0108960E940E
:1002300096056DE072E0CE0101960E942C05BE018C
:10024000685F7F4FCE0101960E9414066FE072E056
:100250007BC06330710509F457C06430710509F043
:1002600082C080919E02811B80939E026BE170E0B0
:1002700085E294E00E94E1004AE0612FCE010896F9
:100280000E9496056DE072E0CE0101960E942C0559
:10029000BE01685F7F4FCE0101960E94140665E1A2
:1002A00072E052C010929E0210929D026BE170E0CB
:1002B00085E294E00E94E1006AE072E085E294E069
:1002C0000E948F0450C080919D02810F80939D02F7
:1002D0006BE170E085E294E00E94E1004AE0612F6A
:1002E000CE0108960E9496056DE072E0CE0101965F
:1002F0000E942C05BE01685F7F4FCE0101960E94CF
:10030000140661E172E020C080919E02810F80930B
:100310009E026BE170E085E294E00E94E1004AE019
:10032000612FCE0108960E9496056DE072E0CE0125
:1003300001960E942C05BE01685F7F4FCE01019699
:100340000E94140663E172E00E942706BC0185E268
:1003500094E00E945A04CE0101960E94BE04CE0190
:1003600008960E94BE042E960FB6F894DEBF0FBE0C
:10037000CDBFDF91CF911F91089560E070E080E0E4
:100380000C94EF00CF93C82F6BE170E085E294E00E
:100390000E94E10067E172E085E294E00E948F0430
:1003A000CC2319F080E00E94BD018CEFE7EAF2E077
:1003B000DF011D928A95E9F71092A602CF91089568
:1003C00081E00C94C201BF92CF92DF92EF92FF9234
:1003D0000F931F93CF93DF93CDB7DEB72E970FB652
:1003E000F894DEBF0FBECDBF8C017B016EE272E0E0
:1003F000CE0108960E942C05B12C50E8C52ED12CB8
:100400008B2D90E0F70124813581A601421B530B0F
:100410009A01369527958217930740F46DE272E0B2
:10042000CE0108960E94F005B394EACFBE01685F42
:100430007F4FCE0101960E945A05B701CE01019669
:100440000E941406BC01C8010E945A05CE01019603
:100450000E94BE04CE0108960E94BE04C8012E96DA
:100460000FB6F894DEBF0FBECDBFDF91CF911F91C5
:100470000F91FF90EF90DF90CF90BF9008951F9362
:10048000CF93DF93EC016EE272E00E942C0510E046
:100490006BE172E0CE010E94F0051F5F1038C1F7DA
:1004A000CE01DF91CF911F9108950F931F93CF93AA
:1004B000DF93CDB7DEB72E970FB6F894DEBF0FBE31
:1004C000CDBF8C0163EA73E0CE0108960E945A0505
:1004D000BE01685F7F4FCE0101960E94E301BE011D
:1004E0006F5F7F4F87EA92E00E944305CE0101963D
:1004F0000E94BE04CE0108960E94BE046AEA73E020
:10050000CE0108960E945A05BE01685F7F4FCE015A
:1005100001960E94E301BE016F5F7F4F8EEA92E079
:100520000E944305CE0101960E94BE04CE010896AA
:100530000E94BE04B801CE0108960E945A05BE0171
:10054000685F7F4FCE0101960E94E301BE016F5F9D
:100550007F4F85EB92E00E944305CE0101960E94F9
:10056000BE04CE0108960E94BE04CE0101960E94F0
:100570003F02BE016F5F7F4F8CEB92E00E9443050C
:10058000CE0101960E94BE0484E02E960FB6F89428
:10059000DEBF0FBECDBFDF91CF911F910F910895A8
:1005A0001F93CF93DF93CDB7DEB727970FB6F8949D
:1005B000DEBF0FBECDBF61EB73E0CE0101960E949E
:1005C0005A05CE0101960E945502182FCE010196C0
:1005D0000E94BE04812F27960FB6F894DEBF0FBE8F
:1005E000CDBFDF91CF911F91089581E080939C0250
:1005F00068EB73E085E294E00E945A0463E070E0E7
:1006000082E00C94EF000F931F93CF93DF93CDB74D
:10061000DEB727970FB6F894DEBF0FBECDBF8C01B3
:1006200010929C02FC01848164E070E08D5F0E9466
:10063000EF006EE272E08FE992E00E946405F8013B
:100640008481958181309105F9F08230910531F4F2
:1006500060E070E0C8010E94520602C00397B0F04B
:100660006DE172E0CE0101960E942C05B801CE0129
:1006700001960E941406BC0185E294E00E94AC043D
:10068000CE0101960E94BE040E94F50227960FB685
:10069000F894DEBF0FBECDBFDF91CF911F910F91B8
:1006A0000895CF93DF9381110E94E0010E94D00250
:1006B0002091A60290E0820F911D8093A602C0E0D7
:1006C000D7E08C2F90E02091A60230E02817390760
:1006D0006CF0D89FB001D99F700D112469557D4FE2
:1006E00085E294E00E94AC04CF5FEBCFDF91CF9125
:1006F0000C94F50281E00C945103CF93DF936FE2E9
:1007000072E083EA93E00E942C0569E572E08AEAD0
:1007100093E00E942C056EE772E081EB93E00E946B
:100720002C056AE872E088EB93E00E942C05C7EA8A
:10073000D2E06EE272E0CE010E942C05279683E0A3
:10074000C33AD807B1F76EE272E08FE992E0DF9129
:10075000CF910C942C050C94BF0040E855E260E06A
:1007600070E085E294E00E94EB0885E294E00E944C
:10077000AA060C947A031F93CF93DF93CDB7DEB70D
:1007800027970FB6F894DEBF0FBECDBF80919C02B5
:1007900081110CC085E294E00E94AA0643C085E264
:1007A00094E00E946106181619063CF085E294E078
:1007B0000E946106892B99F735C085E294E00E947A
:1007C0008A06182F8D30D9F0682F8FE992E00E94A9
:1007D0000006612FCE0101960E947C05BE016F5F6D
:1007E0007F4F85E294E00E945A04CE0101960E9458
:1007F000BE0480919E028F5F80939E02D7CF6DE0F2
:100800008FE992E00E9400066FE972E0CE01019646
:100810000E945A05CE0101960E940303CE01019663
:100820000E94BE0427960FB6F894DEBF0FBECDBF60
:10083000DF91CF911F910895CF92DF92EF92FF92B7
:100840000F931F93CF93DF936C017A01EB01E60EB8
:10085000F71E00E010E0CE15DF0561F06991D601CA
:10086000ED91FC910190F081E02DC6011995080FE2
:10087000191FF1CFC801DF91CF911F910F91FF9008
:10088000EF90DF90CF9008956115710581F0DB0145
:100890000D900020E9F7AD0141505109461B570B5F
:1008A000DC01ED91FC910280F381E02D199480E050
:1008B00090E00895AF92BF92CF92DF92EF92FF92B5
:1008C0000F931F93CF93DF937C016B01C0E0D0E0C7
:1008D00000E010E0D60114968D919C911597C817F1
:1008E000D90788F4D701ED91FC91A080B180BE01B9
:1008F000C6010E944106682FC701F5011995080F2E
:10090000191F2196E7CFC801DF91CF911F910F9159
:10091000FF90EF90DF90CF90BF90AF9008950C9430
:100920004404DC01ED91FC910190F081E02D1994DB
:100930000F931F93CF93DF93EC016DE00E9491041E
:100940008C016AE0CE010E949104800F911FDF911B
:10095000CF911F910F9108950F931F93CF93DF9322
:10096000EC010E945A048C01CE010E949804800F71
:10097000911FDF91CF911F910F910895FC0180810C
:1009800091810C94EB0FCF93DF93EC0188819981D7
:10099000009711F00E94EB0F198218821D821C82B1
:1009A0001B821A82DF91CF9108950F931F93CF93EB
:1009B000DF93EC018B016F5F7F4F888199810E94EB
:1009C0006A0E009731F0998388831B830A8381E044
:1009D00001C080E0DF91CF911F910F910895CF93D7
:1009E000DF93EC0188819981892B29F08A819B8191
:1009F0008617970760F4CE010E94D504882341F042
:100A00008C819D81892B19F4E881F981108281E024
:100A1000DF91CF910895EF92FF920F931F93CF93A1
:100A2000DF93EC017B018A01BA010E94EF0481117E
:100A300004C0CE010E94C30407C01D830C83B7010C
:100A4000888199810E948610CE01DF91CF911F91FC
:100A50000F91FF90EF900895FC0111821082138294
:100A600012821582148216826115710559F0FB01FC
:100A700001900020E9F7AF0141505109461B570B87
:100A80000C940B050895CF93DF93EC01FB018617BF
:100A9000970761F0608171816115710529F04481CA
:100AA00055810E940B0502C00E94C304CE01DF9154
:100AB000CF910895FC011182108213821282158257
:100AC000148216820C944305CF93DF93EC016115D9
:100AD000710561F0FB0101900020E9F7AF01415081
:100AE0005109461B570B0E940B0502C00E94C3040C
:100AF000CE01DF91CF910895CF93DF931F921F9284
:100B0000CDB7DEB7FC0111821082138212821582EA
:100B10001482168269831A82BE016F5F7F4F0E9422
:100B200064050F900F90DF91CF9108950F931F935D
:100B3000CF93DF93CDB7DEB729970FB6F894DEBF1A
:100B40000FBECDBF8C01862FF80111821082138257
:100B5000128215821482168250E0BE016F5F7F4FB1
:100B600090E00E948D10BE016F5F7F4FC8010E9410
:100B7000640529960FB6F894DEBF0FBECDBFDF9196
:100B8000CF911F910F910895EF92FF920F931F93B2
:100B9000CF93DF93EC017B010C811D816115710501
:100BA00011F480E016C04115510591F0040F151F96
:100BB000B8010E94EF048823A1F3288139818C8138
:100BC0009D81B701820F931F0E9486101D830C83A5
:100BD00081E0DF91CF911F910F91FF90EF900895E9
:100BE0006115710559F0FB0101900020E9F7AF0193
:100BF00041505109461B570B0C94C40580E00895E1
:100C0000CF93DF931F921F92CDB7DEB769831A820D
:100C100041E050E0BE016F5F7F4F0E94C4050F901E
:100C20000F90DF91CF910895CF93DF93EC01FB01FB
:100C300044815581608171810E94C405811103C086
:100C4000CE010E94C304CE01DF91CF910895CF93CE
:100C5000DF93EC016115710569F0FB010190002043
:100C6000E9F7AF0141505109461B570B0E94C405DB
:100C7000811103C0CE010E94C304CE01DF91CF9148
:100C80000895FC01248135816217730748F480813F
:100C90009181009729F0FC01E60FF71F80810895EC
:100CA00080E008950C9441060E94080E0E94AD0356
:100CB000CEECD7E00E94E8002097E1F30E94CE0737
:100CC000F9CFFC0124853585F901E05CFF4F808177
:100CD0009181329620813181821B930B8F739927EA
:100CE0000895FC0184859585FC01E05CFF4F4081FF
:100CF00051813296208131814217530741F0019092
:100D0000F081E02DE80FF91F808190E008958FEFCA
:100D10009FEF0895FC0184859585FC01E05CFF4F01
:100D2000408151813296208131814217530779F0F9
:100D3000A081B181A80FB91F8C91208131812F5FD3
:100D40003F4F2F7333273183208390E008958FEF37
:100D50009FEF0895FC0181A1882329F0A489B5891A
:100D60008C9186FFFBCF11A20895CF93DF93FC01F6
:100D700086859785DC01A05CBF4F2D913C91119732
:100D80002F5F2F7330E0EC01CE5BDF4F488159813C
:100D900024173507D9F30D90BC91A02DA80FB91FCA
:100DA0006C93A685B785A05CBF4F11963C932E939C
:100DB000A689B7892C9181E090E0078C02C0880F4A
:100DC000991F0A94E2F7282B2C9381E081A30488D1
:100DD000F589E02D80818064808381E090E0DF915F
:100DE000CF910895FB01E05CFF4F208131812F5F9F
:100DF0003F4F2F733327DB01AE5BBF4F4D915C91AB
:100E00002417350739F0A081B181A60FB71F8C9345
:100E10003183208308951F920F920FB60F921124F1
:100E20000BB60F922F933F934F935F936F937F93E4
:100E30008F939F93AF93BF93EF93FF938091C000E5
:100E400082FD06C08091C60063E276E00E94F20651
:100E5000FF91EF91BF91AF919F918F917F916F9192
:100E60005F914F913F912F910F900BBE0F900FBE4E
:100E70000F901F90189508951F920F920FB60F9222
:100E800011240BB60F922F933F934F935F936F9361
:100E90007F938F939F93AF93BF93EF93FF93809133
:100EA000C80082FD06C08091CE006BE975E00E940B
:100EB000F206FF91EF91BF91AF919F918F917F913A
:100EC0006F915F914F913F912F910F900BBE0F90BB
:100ED0000FBE0F901F90189508951F920F920FB696
:100EE0000F9211240BB60F922F933F934F935F9362
:100EF0006F937F938F939F93AF93BF93EF93FF93E2
:100F00008091D00082FD06C08091D60063E175E03B
:100F10000E94F206FF91EF91BF91AF919F918F9147
:100F20007F916F915F914F913F912F910F900BBEE9
:100F30000F900FBE0F901F90189508951F920F925B
:100F40000FB60F9211240BB60F922F933F934F932E
:100F50005F936F937F938F939F93AF93BF93EF9321
:100F6000FF938091300182FD06C0809136016BE8CD
:100F700074E00E94F206FF91EF91BF91AF919F91B3
:100F80008F917F916F915F914F913F912F910F9032
:100F90000BBE0F900FBE0F901F90189585E294E046
:100FA0000E946106892B11F00E94BB0383E094E04C
:100FB0000E946106892B11F00E943B0781EE93E0AD
:100FC0000E946106892B11F00E946C078FEB93E061
:100FD0000E946106892B11F00C949D0708951F92C1
:100FE0000F920FB60F9211240BB60F922F933F93CF
:100FF0008F939F93EF93FF9320911F0630912006CC
:1010000080912106909122062817390731F48091AA
:10101000C1008F7D8093C10014C0E0912106F09142
:101020002206E152FA4F20818091210690912206FA
:1010300001968F739927909322068093210620931F
:10104000C600FF91EF919F918F913F912F910F904B
:101050000BBE0F900FBE0F901F9018951F920F920E
:101060000FB60F9211240BB60F922F933F938F93CD
:101070009F93EF93FF93209197053091980580916E
:10108000990590919A052817390731F48091C90084
:101090008F7D8093C90014C0E0919905F0919A0565
:1010A000E95AFA4F20818091990590919A0501960D
:1010B0008F73992790939A05809399052093CE007A
:1010C000FF91EF919F918F913F912F910F900BBEC8
:1010D0000F900FBE0F901F9018951F920F920FB692
:1010E0000F9211240BB60F922F933F938F939F93E0
:1010F000EF93FF9320910F0530911005809111051A
:10110000909112052817390731F48091D1008F7D15
:101110008093D10014C0E0911105F0911205E153C4
:10112000FB4F2081809111059091120501968F73DC
:10113000992790931205809311052093D600FF9173
:10114000EF919F918F913F912F910F900BBE0F9038
:101150000FBE0F901F9018951F920F920FB60F920F
:1011600011240BB60F922F933F938F939F93EF937E
:10117000FF93209187043091880480918904909195
:101180008A042817390731F4809131018F7D8093CB
:10119000310114C0E0918904F0918A04E95BFB4FAE
:1011A00020818091890490918A0401968F739927F8
:1011B00090938A048093890420933601FF91EF91E4
:1011C0009F918F913F912F910F900BBE0F900FBE6B
:1011D0000F901F901895CF92DF92EF92FF92CF93CE
:1011E000DF93EC016A017B01411581EE580761052F
:1011F0007105F9F0EC89FD8981E090E008A002C05A
:10120000880F991F0A94E2F7808360E079E08DE30C
:1012100090E0A70196010E94D210215031094109A6
:1012200051095695479537952795211580E138073F
:1012300098F0EC89FD89108260E874E88EE190E016
:10124000A70196010E94D21021503109410951098C
:101250005695479537952795E889F9893083EA8926
:10126000FB89208319A2EE89FF89408181E090E00B
:101270009C010C8C02C0220F331F0A94E2F7422B10
:101280004083EE89FF8940819C010D8C02C0220FB2
:10129000331F0A94E2F7422B4083EE89FF89408195
:1012A0009C010E8C02C0220F331F0A94E2F7422BDE
:1012B0004083EE89FF8920810F8C02C0880F991F1F
:1012C0000A94E2F7809582238083DF91CF91FF908B
:1012D000EF90DF90CF900895CF9310922804109252
:1012E000270488EE93E0A0E0B0E080932904909377
:1012F0002A04A0932B04B0932C0420E932E030930D
:1013000026042093250443E256E050933204409390
:1013100031044FED55E0509334044093330445ECD1
:1013200050E0509336044093350444EC50E0509321
:1013300038044093370440EC50E050933A04409313
:10134000390441EC50E050933C0440933B0442ECA0
:1013500050E050933E0440933D0446EC50E05093DF
:10136000400440933F04C4E0C0934104F3E0F09391
:101370004204E7E0E093430475E07093440461E0C5
:1013800060934504109206041092050480930704AC
:1013900090930804A0930904B0930A0430930404C2
:1013A000209303044BE955E05093100440930F043D
:1013B00047E555E050931204409311044DEC50E082
:1013C00050931404409313044CEC50E050931604D3
:1013D0004093150448EC50E05093180440931704D0
:1013E00049EC50E050931A04409319044AEC50E041
:1013F00050931C0440931B044EEC50E050931E0489
:1014000040931D04C0931F04F0932004E093210433
:1014100070932204609323041092E4031092E30378
:101420008093E5039093E603A093E703B093E8036A
:101430003093E2032093E10343E155E05093EE0340
:101440004093ED034FEC54E05093F0034093EF03CF
:1014500045ED50E05093F2034093F10344ED50E02A
:101460005093F4034093F30340ED50E05093F603A0
:101470004093F50341ED50E05093F8034093F70398
:1014800042ED50E05093FA034093F90346ED50E0EB
:101490005093FC034093FB03C093FD03F093FE03C2
:1014A000E093FF0370930004609301041092C20361
:1014B0001092C1038093C3039093C403A093C50308
:1014C000B093C6033093C0032093BF038BE894E02E
:1014D0009093CC038093CB0387E494E09093CE0366
:1014E0008093CD0385E391E09093D0038093CF0365
:1014F00084E391E09093D2038093D10380E391E061
:101500009093D4038093D30381E391E09093D60327
:101510008093D50382E391E09093D8038093D7031F
:1015200086E391E09093DA038093D903C093DB03C1
:10153000F093DC03E093DD037093DE036093DF033D
:10154000CF910895FC018285807C82871682178264
:1015500010861186128213821482158211821082E3
:1015600008954F925F926F927F928F929F92AF9267
:10157000BF92CF92DF92EF92FF920F931F93CF9380
:10158000DF93CDB7DEB728970FB6F894DEBF0FBE56
:10159000CDBF8C01FC014281538164817581452B53
:1015A000462B472B09F41BC1828584FF18C10E947A
:1015B000210D6B017C01F8012285822F8F709EE046
:1015C000980F9F70933008F0F8C04681578160856E
:1015D0007185C416D506E606F70608F4EEC082301B
:1015E00049F44281538164817581468357836087C2
:1015F0007187E3C0833009F047C0F801428053800F
:10160000648075800E94210D20E8822E21E5922EB3
:10161000AA24A394B12CA50194010E94D21060E8E1
:1016200071E581E090E00E94C210640D751D861D79
:10163000971DF8014280538064807580C616D706D6
:10164000E806F90658F0C701B601A50194010E9409
:10165000D2102F5F3F4F4F4F5F4F06C0C701B601FB
:10166000A50194010E94D21060E871E581E090E04C
:101670000E94C210640D751D861D971DF8016683BA
:1016800077838087918799C0843009F092C0F801F0
:1016900042805380648075800E94210D4B015C0163
:1016A0000E94210D69837A838B839C830E94210D84
:1016B0006D837E838F839887840C951CA61CB71C32
:1016C00080E8482E81E5582E66246394712C698148
:1016D0007A818B819C81A30192010E94D210861A8B
:1016E000970AA80AB90A6D817E818F819885A30126
:1016F00092010E94D2102C5F3F4F4F4F5F4FCA01A3
:10170000B90127E030E040E050E00E94D2109B0198
:10171000AC0160E871E581E090E00E94C210861A99
:10172000970AA80AB90AF801428153816481758138
:10173000C814D904EA04FB0470F04A015B01F0E824
:101740008F0EFAE39F1EF9E0AF1EB11C8C0C9D1C9E
:10175000AE1CBF1C06C046015701840E951EA61E76
:10176000B71EC701B601A30192010E94D210861ACA
:10177000970AA80AB90ACA01B9016C5F7F4F8F4F57
:101780009F4F27E030E040E050E00E94D2109B01E4
:10179000AC0160E871E581E090E00E94C210861A19
:1017A000970AA80AB90AF80186829782A086B186AC
:1017B00004C0822F8F7EF8018287F80182858F70A6
:1017C000813089F442815381648175814C0D5D1DA6
:1017D0006E1D7F1D468357836087718704C0F801A3
:1017E00082858F7E828728960FB6F894DEBF0FBE63
:1017F000CDBFDF91CF911F910F91FF90EF90DF90C0
:10180000CF90BF90AF909F908F907F906F905F90A0
:101810004F900895683050F4FC012BE0629FE00D7A
:10182000F11D112492859F7081E009F480E00895F4
:101830001F93CF93DF93EC01162F0E940A0C88238D
:1018400099F0FE018BE0189FE00DF11D11248285B7
:10185000807E828711821082128213821482158206
:101860001682178210861186DF91CF911F910895FD
:10187000EF92FF920F931F93CF93DF938C01EC01B4
:101880007C0188E5E80EF11CCE010E94A20A2B968D
:10189000CE15DF05C9F71882C0E06C2FC8010E9481
:1018A000180CCF5FC830C9F7DF91CF911F910F910E
:1018B000FF90EF9008958F929F92AF92BF92DF9228
:1018C000EF92FF920F931F93CF93DF93EC017C0174
:1018D00088E5E80EF11CF7018081811146C081E0A6
:1018E00080838E01075A1F4FF80110824BE0D42EDF
:1018F000F8018081883090F5FE01D89EE00DF11D41
:101900001124828584FF25C00E94210DF8012081C9
:10191000DE01D29EA00DB11D112416968D909D90D2
:10192000AD90BC901997681579058A059B0588F0DC
:10193000AD90BC9011971A969C911A9795FF11C083
:10194000622FCE010E94180CA114B10411F0F50110
:101950001995F80180818F5F8083CACFF7011082CB
:1019600004C0CD010E94B10AEFCFDF91CF911F914A
:101970000F91FF90EF90DF90BF90AF909F908F906E
:1019800008958F929F92AF92BF92CF92DF92EF9283
:10199000FF92CF93DF93EC016A017B010E94FC0D63
:1019A0004B015C010E94FC0D681979098A099B09A9
:1019B000C616D706E806F90620F0CE010E945B0C99
:1019C000F1CFDF91CF91FF90EF90DF90CF90BF905C
:1019D000AF909F908F90089587E696E00C94380C16
:1019E0000F931F936093CD067093CE068093CF061E
:1019F0009093D00600910002109101022091020202
:101A000030910302060F171F281F391F0093C506C8
:101A10001093C6062093C7063093C80682E090E074
:101A20009093C4068093C3060E94FC0D6093C90680
:101A30007093CA068093CB069093CC061F910F91AA
:101A40000895CF92DF92EF92FF920F931F930E941F
:101A5000FC0DC090C906D090CA06E090CB06F0906D
:101A6000CC066C197D098E099F090091CD06109155
:101A7000CE062091CF063091D006683E7340810596
:101A80009105D8F00F5F1F4F2F4F3F4F0093CD06AA
:101A90001093CE062093CF063093D00648EEC40EA6
:101AA00043E0D41EE11CF11CC092C906D092CA06C4
:101AB000E092CB06F092CC06CACF8091C5069091F9
:101AC000C606A091C706B091C806081719072A07CD
:101AD0003B07C8F1E091C106F091C206309799F139
:101AE0001995611571058105910519F00E94F00C99
:101AF0002AC08091000290910102A0910202B0914F
:101B000003024091CD065091CE066091CF067091B0
:101B1000D006840F951FA61FB71F8093C50690930C
:101B2000C606A093C706B093C80681E090E0209156
:101B3000C3063091C406232B11F480E090E090930B
:101B4000C4068093C3066091CD067091CE06809145
:101B5000CF069091D0061F910F91FF90EF90DF90EC
:101B6000CF9008951F920F920FB60F9211242F93CA
:101B70003F938F939F93AF93BF938091D2069091A1
:101B8000D306A091D406B091D5063091D10623E0BA
:101B9000230F2D3720F40196A11DB11D05C026E8A5
:101BA000230F0296A11DB11D2093D1068093D2066A
:101BB0009093D306A093D406B093D5068091D60611
:101BC0009091D706A091D806B091D9060196A11D93
:101BD000B11D8093D6069093D706A093D806B093F4
:101BE000D906BF91AF919F918F913F912F910F9007
:101BF0000FBE0F901F9018952FB7F8946091D206E2
:101C00007091D3068091D4069091D5062FBF089588
:101C1000789484B5826084BD84B5816084BD85B5C7
:101C2000826085BD85B5816085BDEEE6F0E080818E
:101C300081608083E1E8F0E01082808182608083AF
:101C4000808181608083E0E8F0E080818160808332
:101C5000E1EBF0E0808184608083E0EBF0E0808164
:101C600081608083E1E9F0E080818260808380810F
:101C700081608083E0E9F0E0808181608083E1EA37
:101C8000F0E0808182608083808181608083E0EAEF
:101C9000F0E0808181608083E1E2F1E08081826018
:101CA0008083808181608083E0E2F1E080818160D7
:101CB0008083EAE7F0E080818460808380818260B5
:101CC000808380818160808380818068808310929E
:101CD000C10008956F927F928F929F92AF92BF92B0
:101CE000CF92DF92EF92FF920F931F93CF93DF93E8
:101CF000EC01CB01209781F4DF91CF911F910F91DF
:101D0000FF90EF90DF90CF90BF90AF909F908F901B
:101D10007F906F900C94530FFE01E60FF71F9E010A
:101D200022503109E217F30708F4ACC0D9010D9134
:101D30001C91119706171707B8F00530110508F424
:101D40009FC0A801445051094617570708F498C08E
:101D500002501109061B170B019311936D937C938D
:101D6000CF010E94EB0F8CC05B01A01AB10A4E019B
:101D7000800E911EA091DC06B091DD06612C712CC5
:101D800060E070E0109709F449C0A815B905C9F5DD
:101D9000ED90FC901197670142E0C40ED11CCA146B
:101DA000DB0478F147018A189B08640142E0C40E05
:101DB000D11C1296BC9012971396AC91B5E0CB163D
:101DC000D10440F0B282A38391828082D9018D93A5
:101DD0009C9309C00E5F1F4F0E0D1F1DF90111834B
:101DE0000083EB2DFA2F6115710531F0DB0113969D
:101DF000FC93EE93129744C0F093DD06E093DC066B
:101E00003FC06D917C9111976616770608F43B01EF
:101E1000BD0112960D90BC91A02DB4CF6091DA0651
:101E20007091DB0668157905E9F468167906D0F437
:101E300040910402509105024115510541F44DB7FE
:101E40005EB76091080270910902461B570BE417B8
:101E5000F507C0F4F093DB06E093DA06F90191830D
:101E600080830EC00E94530F7C01009759F0A80197
:101E7000BE010E947D10CE010E94EB0FC70104C07D
:101E8000CE0102C080E090E0DF91CF911F910F91D1
:101E9000FF90EF90DF90CF90BF90AF909F908F908A
:101EA0007F906F900895CF93DF938230910510F467
:101EB00082E090E0E091DC06F091DD0620E030E089
:101EC000A0E0B0E0309739F14081518148175907BF
:101ED000B8F04817590771F482819381109729F05F
:101EE00013969C938E9312972CC09093DD0680934B
:101EF000DC0627C02115310531F04217530718F0D1
:101F0000A901DB0101C0EF019A01BD01DF010280DF
:101F1000F381E02DD7CF21153105F9F0281B390BBE
:101F20002430310580F48A819B816115710521F08F
:101F3000FB019383828304C09093DD068093DC06CB
:101F4000FE01329644C0FE01E20FF31F819391938C
:101F500022503109398328833AC02091DA06309122
:101F6000DB06232B41F420910602309107023093C7
:101F7000DB062093DA062091040230910502211538
:101F8000310541F42DB73EB7409108025091090246
:101F9000241B350BE091DA06F091DB06E217F3071C
:101FA000A0F42E1B3F0B2817390778F0AC014E5FC9
:101FB0005F4F2417350748F04E0F5F1F5093DB0625
:101FC0004093DA068193919302C0E0E0F0E0CF0104
:101FD000DF91CF910895CF93DF93009709F487C0E5
:101FE000FC01329713821282C091DC06D091DD068B
:101FF000209781F420813181280F391F8091DA06E2
:102000009091DB068217930779F5F093DB06E09356
:10201000DA066DC0DE0120E030E0AE17BF0750F4F5
:1020200012964D915C9113979D014115510509F14F
:10203000DA01F3CFB383A28340815181840F951FCE
:102040008A179B0771F48D919C911197840F951FAE
:1020500002969183808312968D919C91139793831E
:1020600082832115310529F4F093DD06E093DC0627
:102070003EC0D9011396FC93EE9312974D915D915A
:10208000A40FB51FEA17FB0779F480819181840FB3
:10209000951F0296D90111969C938E93828193810C
:1020A00013969C938E931297E0E0F0E08A819B81D7
:1020B000009719F0FE01EC01F9CFCE0102962881BC
:1020C0003981820F931F2091DA063091DB062817A1
:1020D000390769F4309729F41092DD061092DC0676
:1020E00002C013821282D093DB06C093DA06DF911E
:1020F000CF910895F8940C941211FB01DC0102C0F9
:1021000001900D9241505040D8F70895FB01DC0139
:1021100001900D920020E1F708954532510520F419
:10212000423010F00C949810FB011082CB010895FE
:10213000BB27FB015527AA27880F991FAA1FA417A1
:1021400010F0A41B83955051B9F7A05DAA3308F095
:10215000A95DA193009779F7B111B1931192CB01C9
:102160000C94B210DC01FC01672F71917723E1F729
:10217000329704C07C916D9370836291AE17BF0754
:10218000C8F30895DB018F939F930E940311BF91C1
:10219000AF91A29F800D911DA39F900DB29F900DB6
:1021A00011240895A1E21A2EAA1BBB1BFD010DC02C
:1021B000AA1FBB1FEE1FFF1FA217B307E407F507F7
:1021C00020F0A21BB30BE40BF50B661F771F881FD3
:1021D000991F1A9469F760957095809590959B0169
:1021E000AC01BD01CF010895A29FB001B39FC00112
:1021F000A39F700D811D1124911DB29F700D811D33
:102200001124911D08950E94F410A59F900DB49F74
:10221000900DA49F800D911D112408950790F691B3
:10222000E02D199411E0C6E1D1E000E006C022974C
:102230000109FE010BBF0E940E11C831D10780E0D9
:082240000807A9F7F894FFCF8D
:102248002C0100000000DE0680005B48005B0041B6
:10225800004200430044005B324A005F004E4F5486
:1022680020494D504C454D454E5445443A20005266
:102278004F42434F20494E445553545249455320E9
:10228800554E4946494544204F5045524154494EC0
:10229800472053595354454D00434F5059524947CD
:1022A800485420323037352D3230373720524F429C
:1022B800434F20494E4455535452494553005547BE
:1022C800482D41524455494E4F003E000000000041
:0C22D800B5061C0461068A067106AA0601
:00000001FF
